{
  "contractName": "Voting",
  "abi": [
    {
      "inputs": [],
      "stateMutability": "nonpayable",
      "type": "constructor"
    },
    {
      "anonymous": false,
      "inputs": [
        {
          "indexed": true,
          "internalType": "uint256",
          "name": "voterDetailId",
          "type": "uint256"
        },
        {
          "indexed": false,
          "internalType": "uint256",
          "name": "voteId",
          "type": "uint256"
        },
        {
          "indexed": false,
          "internalType": "uint256",
          "name": "candidateId",
          "type": "uint256"
        },
        {
          "indexed": false,
          "internalType": "uint256",
          "name": "voteQuantity",
          "type": "uint256"
        },
        {
          "indexed": false,
          "internalType": "string",
          "name": "createdDate",
          "type": "string"
        },
        {
          "indexed": false,
          "internalType": "address",
          "name": "_address",
          "type": "address"
        }
      ],
      "name": "CreateVoteDetail",
      "type": "event"
    },
    {
      "anonymous": false,
      "inputs": [
        {
          "indexed": true,
          "internalType": "uint256",
          "name": "id",
          "type": "uint256"
        },
        {
          "indexed": false,
          "internalType": "uint256",
          "name": "voterId",
          "type": "uint256"
        },
        {
          "indexed": false,
          "internalType": "uint256",
          "name": "voteDetailId",
          "type": "uint256"
        },
        {
          "indexed": false,
          "internalType": "string",
          "name": "votedTime",
          "type": "string"
        },
        {
          "indexed": false,
          "internalType": "address",
          "name": "_address",
          "type": "address"
        }
      ],
      "name": "CreateVoterVote",
      "type": "event"
    },
    {
      "inputs": [],
      "name": "_voterDetailId",
      "outputs": [
        {
          "internalType": "uint256",
          "name": "_value",
          "type": "uint256"
        }
      ],
      "stateMutability": "view",
      "type": "function",
      "constant": true
    },
    {
      "inputs": [
        {
          "internalType": "uint256",
          "name": "",
          "type": "uint256"
        }
      ],
      "name": "voteDetailAddress",
      "outputs": [
        {
          "internalType": "address",
          "name": "",
          "type": "address"
        }
      ],
      "stateMutability": "view",
      "type": "function",
      "constant": true
    },
    {
      "inputs": [
        {
          "internalType": "address",
          "name": "",
          "type": "address"
        }
      ],
      "name": "voteDetails",
      "outputs": [
        {
          "internalType": "uint256",
          "name": "voterDetailId",
          "type": "uint256"
        },
        {
          "internalType": "uint256",
          "name": "voteId",
          "type": "uint256"
        },
        {
          "internalType": "uint256",
          "name": "candidateId",
          "type": "uint256"
        },
        {
          "internalType": "uint256",
          "name": "voteQuantity",
          "type": "uint256"
        },
        {
          "internalType": "string",
          "name": "createdDate",
          "type": "string"
        },
        {
          "internalType": "address",
          "name": "_address",
          "type": "address"
        }
      ],
      "stateMutability": "view",
      "type": "function",
      "constant": true
    },
    {
      "inputs": [
        {
          "internalType": "uint256",
          "name": "",
          "type": "uint256"
        }
      ],
      "name": "voterVoteAddress",
      "outputs": [
        {
          "internalType": "address",
          "name": "",
          "type": "address"
        }
      ],
      "stateMutability": "view",
      "type": "function",
      "constant": true
    },
    {
      "inputs": [
        {
          "internalType": "address",
          "name": "",
          "type": "address"
        }
      ],
      "name": "voterVoteList",
      "outputs": [
        {
          "internalType": "uint256",
          "name": "voterDetailId",
          "type": "uint256"
        },
        {
          "internalType": "uint256",
          "name": "voteId",
          "type": "uint256"
        },
        {
          "internalType": "uint256",
          "name": "candidateId",
          "type": "uint256"
        },
        {
          "internalType": "uint256",
          "name": "voteQuantity",
          "type": "uint256"
        },
        {
          "internalType": "string",
          "name": "createdDate",
          "type": "string"
        },
        {
          "internalType": "address",
          "name": "_address",
          "type": "address"
        }
      ],
      "stateMutability": "view",
      "type": "function",
      "constant": true
    },
    {
      "inputs": [],
      "name": "votingOrganizer",
      "outputs": [
        {
          "internalType": "address",
          "name": "",
          "type": "address"
        }
      ],
      "stateMutability": "view",
      "type": "function",
      "constant": true
    },
    {
      "inputs": [
        {
          "internalType": "address",
          "name": "_address",
          "type": "address"
        },
        {
          "internalType": "uint256",
          "name": "_voteId",
          "type": "uint256"
        },
        {
          "internalType": "uint256",
          "name": "_candidateId",
          "type": "uint256"
        },
        {
          "internalType": "uint256",
          "name": "_voteQuantity",
          "type": "uint256"
        },
        {
          "internalType": "string",
          "name": "_createdDate",
          "type": "string"
        }
      ],
      "name": "setVoteDetail",
      "outputs": [],
      "stateMutability": "nonpayable",
      "type": "function"
    },
    {
      "inputs": [],
      "name": "getVoteDetailAddress",
      "outputs": [
        {
          "internalType": "address[]",
          "name": "",
          "type": "address[]"
        }
      ],
      "stateMutability": "view",
      "type": "function",
      "constant": true
    },
    {
      "inputs": [
        {
          "internalType": "address",
          "name": "_address",
          "type": "address"
        }
      ],
      "name": "getVoteDetailData",
      "outputs": [
        {
          "internalType": "uint256",
          "name": "",
          "type": "uint256"
        },
        {
          "internalType": "uint256",
          "name": "",
          "type": "uint256"
        },
        {
          "internalType": "uint256",
          "name": "",
          "type": "uint256"
        },
        {
          "internalType": "uint256",
          "name": "",
          "type": "uint256"
        },
        {
          "internalType": "string",
          "name": "",
          "type": "string"
        },
        {
          "internalType": "address",
          "name": "",
          "type": "address"
        }
      ],
      "stateMutability": "view",
      "type": "function",
      "constant": true
    }
  ],
  "bytecode": "0x608060405234801561001057600080fd5b5033600160006101000a81548173ffffffffffffffffffffffffffffffffffffffff021916908373ffffffffffffffffffffffffffffffffffffffff1602179055506110fa806100616000396000f3fe608060405234801561001057600080fd5b50600436106100935760003560e01c80638ac7317e116100665780638ac7317e14610150578063a70b01601461016e578063c1ec317c1461019e578063d99102e0146101d3578063e9982352146101ef57610093565b806333934cf6146100985780635cc48aa7146100c85780636782ab89146100e657806387f6354b1461011b575b600080fd5b6100b260048036038101906100ad9190610abf565b61020d565b6040516100bf9190610b2d565b60405180910390f35b6100d061024c565b6040516100dd9190610b2d565b60405180910390f35b61010060048036038101906100fb9190610b74565b610272565b60405161011296959493929190610c49565b60405180910390f35b61013560048036038101906101309190610b74565b610356565b60405161014796959493929190610c49565b60405180910390f35b6101586105b2565b6040516101659190610cb1565b60405180910390f35b61018860048036038101906101839190610abf565b6105be565b6040516101959190610b2d565b60405180910390f35b6101b860048036038101906101b39190610b74565b6105fd565b6040516101ca96959493929190610c49565b60405180910390f35b6101ed60048036038101906101e89190610e01565b6106e1565b005b6101f7610920565b6040516102049190610f56565b60405180910390f35b6002818154811061021d57600080fd5b906000526020600020016000915054906101000a900473ffffffffffffffffffffffffffffffffffffffff1681565b600160009054906101000a900473ffffffffffffffffffffffffffffffffffffffff1681565b60056020528060005260406000206000915090508060000154908060010154908060020154908060030154908060040180546102ad90610fa7565b80601f01602080910402602001604051908101604052809291908181526020018280546102d990610fa7565b80156103265780601f106102fb57610100808354040283529160200191610326565b820191906000526020600020905b81548152906001019060200180831161030957829003601f168201915b5050505050908060050160009054906101000a900473ffffffffffffffffffffffffffffffffffffffff16905086565b60008060008060606000600360008873ffffffffffffffffffffffffffffffffffffffff1673ffffffffffffffffffffffffffffffffffffffff16815260200190815260200160002060000154600360008973ffffffffffffffffffffffffffffffffffffffff1673ffffffffffffffffffffffffffffffffffffffff16815260200190815260200160002060010154600360008a73ffffffffffffffffffffffffffffffffffffffff1673ffffffffffffffffffffffffffffffffffffffff16815260200190815260200160002060020154600360008b73ffffffffffffffffffffffffffffffffffffffff1673ffffffffffffffffffffffffffffffffffffffff16815260200190815260200160002060030154600360008c73ffffffffffffffffffffffffffffffffffffffff1673ffffffffffffffffffffffffffffffffffffffff168152602001908152602001600020600401600360008d73ffffffffffffffffffffffffffffffffffffffff1673ffffffffffffffffffffffffffffffffffffffff16815260200190815260200160002060050160009054906101000a900473ffffffffffffffffffffffffffffffffffffffff1681805461051d90610fa7565b80601f016020809104026020016040519081016040528092919081815260200182805461054990610fa7565b80156105965780601f1061056b57610100808354040283529160200191610596565b820191906000526020600020905b81548152906001019060200180831161057957829003601f168201915b5050505050915095509550955095509550955091939550919395565b60008060000154905081565b600481815481106105ce57600080fd5b906000526020600020016000915054906101000a900473ffffffffffffffffffffffffffffffffffffffff1681565b600360205280600052604060002060009150905080600001549080600101549080600201549080600301549080600401805461063890610fa7565b80601f016020809104026020016040519081016040528092919081815260200182805461066490610fa7565b80156106b15780601f10610686576101008083540402835291602001916106b1565b820191906000526020600020905b81548152906001019060200180831161069457829003601f168201915b5050505050908060050160009054906101000a900473ffffffffffffffffffffffffffffffffffffffff16905086565b3373ffffffffffffffffffffffffffffffffffffffff16600160009054906101000a900473ffffffffffffffffffffffffffffffffffffffff1673ffffffffffffffffffffffffffffffffffffffff1614610771576040517f08c379a00000000000000000000000000000000000000000000000000000000081526004016107689061104a565b60405180910390fd5b61077b60006109ae565b600061078760006109c4565b90506000600360008873ffffffffffffffffffffffffffffffffffffffff1673ffffffffffffffffffffffffffffffffffffffff1681526020019081526020016000209050858160010181905550838160030181905550848160020181905550818160000181905550828160040190805190602001906108089291906109d2565b50868160050160006101000a81548173ffffffffffffffffffffffffffffffffffffffff021916908373ffffffffffffffffffffffffffffffffffffffff1602179055506002879080600181540180825580915050600190039060005260206000200160009091909190916101000a81548173ffffffffffffffffffffffffffffffffffffffff021916908373ffffffffffffffffffffffffffffffffffffffff16021790555080600001547fc09a1c7289be09fe1b9235c0908b98928824e9702843398c889a0ae2d823efef878787878660050160009054906101000a900473ffffffffffffffffffffffffffffffffffffffff1660405161090f95949392919061106a565b60405180910390a250505050505050565b606060028054806020026020016040519081016040528092919081815260200182805480156109a457602002820191906000526020600020905b8160009054906101000a900473ffffffffffffffffffffffffffffffffffffffff1673ffffffffffffffffffffffffffffffffffffffff168152602001906001019080831161095a575b5050505050905090565b6001816000016000828254019250508190555050565b600081600001549050919050565b8280546109de90610fa7565b90600052602060002090601f016020900481019282610a005760008555610a47565b82601f10610a1957805160ff1916838001178555610a47565b82800160010185558215610a47579182015b82811115610a46578251825591602001919060010190610a2b565b5b509050610a549190610a58565b5090565b5b80821115610a71576000816000905550600101610a59565b5090565b6000604051905090565b600080fd5b600080fd5b6000819050919050565b610a9c81610a89565b8114610aa757600080fd5b50565b600081359050610ab981610a93565b92915050565b600060208284031215610ad557610ad4610a7f565b5b6000610ae384828501610aaa565b91505092915050565b600073ffffffffffffffffffffffffffffffffffffffff82169050919050565b6000610b1782610aec565b9050919050565b610b2781610b0c565b82525050565b6000602082019050610b426000830184610b1e565b92915050565b610b5181610b0c565b8114610b5c57600080fd5b50565b600081359050610b6e81610b48565b92915050565b600060208284031215610b8a57610b89610a7f565b5b6000610b9884828501610b5f565b91505092915050565b610baa81610a89565b82525050565b600081519050919050565b600082825260208201905092915050565b60005b83811015610bea578082015181840152602081019050610bcf565b83811115610bf9576000848401525b50505050565b6000601f19601f8301169050919050565b6000610c1b82610bb0565b610c258185610bbb565b9350610c35818560208601610bcc565b610c3e81610bff565b840191505092915050565b600060c082019050610c5e6000830189610ba1565b610c6b6020830188610ba1565b610c786040830187610ba1565b610c856060830186610ba1565b8181036080830152610c978185610c10565b9050610ca660a0830184610b1e565b979650505050505050565b6000602082019050610cc66000830184610ba1565b92915050565b600080fd5b600080fd5b7f4e487b7100000000000000000000000000000000000000000000000000000000600052604160045260246000fd5b610d0e82610bff565b810181811067ffffffffffffffff82111715610d2d57610d2c610cd6565b5b80604052505050565b6000610d40610a75565b9050610d4c8282610d05565b919050565b600067ffffffffffffffff821115610d6c57610d6b610cd6565b5b610d7582610bff565b9050602081019050919050565b82818337600083830152505050565b6000610da4610d9f84610d51565b610d36565b905082815260208101848484011115610dc057610dbf610cd1565b5b610dcb848285610d82565b509392505050565b600082601f830112610de857610de7610ccc565b5b8135610df8848260208601610d91565b91505092915050565b600080600080600060a08688031215610e1d57610e1c610a7f565b5b6000610e2b88828901610b5f565b9550506020610e3c88828901610aaa565b9450506040610e4d88828901610aaa565b9350506060610e5e88828901610aaa565b925050608086013567ffffffffffffffff811115610e7f57610e7e610a84565b5b610e8b88828901610dd3565b9150509295509295909350565b600081519050919050565b600082825260208201905092915050565b6000819050602082019050919050565b610ecd81610b0c565b82525050565b6000610edf8383610ec4565b60208301905092915050565b6000602082019050919050565b6000610f0382610e98565b610f0d8185610ea3565b9350610f1883610eb4565b8060005b83811015610f49578151610f308882610ed3565b9750610f3b83610eeb565b925050600181019050610f1c565b5085935050505092915050565b60006020820190508181036000830152610f708184610ef8565b905092915050565b7f4e487b7100000000000000000000000000000000000000000000000000000000600052602260045260246000fd5b60006002820490506001821680610fbf57607f821691505b602082108103610fd257610fd1610f78565b5b50919050565b7f596f752068617665206e6f20617a7574686f72697a6174696f6e20746f20736560008201527f742043616e646964617465000000000000000000000000000000000000000000602082015250565b6000611034602b83610bbb565b915061103f82610fd8565b604082019050919050565b6000602082019050818103600083015261106381611027565b9050919050565b600060a08201905061107f6000830188610ba1565b61108c6020830187610ba1565b6110996040830186610ba1565b81810360608301526110ab8185610c10565b90506110ba6080830184610b1e565b969550505050505056fea2646970667358221220430aa87580c2598155a3c0184064b23127fc3a2f6ccf35e44d6215280765962d64736f6c634300080d0033",
  "immutableReferences": {},
  "source": "// SPDX-License-Identifier: MIT\r\n// Tells the Solidity compiler to compile only from v0.8.13 to v0.9.0\r\npragma solidity ^0.8.13;\r\n\r\n\r\n// import \"@openzeppelin/contracts/utils/Counters.sol\";\r\n\r\nimport \"./Counters.sol\";\r\n\r\n// This is just a simple example of a coin-like contract.\r\n// It is not ERC20 compatible and cannot be expected to talk to other\r\n// coin/token contracts.\r\n\r\ncontract Voting {\r\n\tusing Counters for Counters.Counter;\r\n\r\n    // Counters.Counter public _voterId;\r\n    // Counters.Counter public _candidateId;\r\n    Counters.Counter public _voterDetailId;\r\n\r\n    address public votingOrganizer;\r\n\r\n\r\n    //To ng vin cho cuc bu c\r\n    struct VoteDetail {\r\n        uint256 voterDetailId;\r\n        uint256 voteId;\r\n        uint256 candidateId;\r\n        uint256 voteQuantity;\r\n        string createdDate;\r\n        address _address;\r\n    }\r\n\r\n    event CreateVoteDetail(\r\n        uint256 indexed voterDetailId,\r\n        uint256 voteId,\r\n        uint256 candidateId,\r\n        uint256 voteQuantity,\r\n        string createdDate,\r\n        address _address\r\n    );\r\n\r\n    address[] public voteDetailAddress;\r\n    mapping(address => VoteDetail) public voteDetails;\r\n\r\n    //To c tri cho cuc bu c\r\n    struct VoterVote {\r\n        uint256 id;\r\n        uint256 voterId;\r\n        uint256 voteDetailId;\r\n        string votedTime;\r\n        address _address;\r\n    }\r\n\r\n    event CreateVoterVote(\r\n        uint256 indexed id,\r\n        uint256 voterId,\r\n        uint256 voteDetailId,\r\n        string votedTime,\r\n        address _address\r\n    );\r\n\r\n    address[] public voterVoteAddress;\r\n    mapping(address => VoteDetail) public voterVoteList;\r\n\r\n    ///CANDIDATE\r\n    // struct Candidate {\r\n    //     uint256 candidateId;\r\n    //     string age;\r\n    //     string name;\r\n    //     string image;\r\n    //     uint256 voteCount;\r\n    //     address _address;\r\n    //     string ipfs;\r\n    // }\r\n\r\n    // event CandidateCreate(\r\n    //     uint256 indexed candidateId,\r\n    //     string age,\r\n    //     string name,\r\n    //     string image,\r\n    //     uint256 voteCount,\r\n    //     address _address,\r\n    //     string ipfs\r\n    // );\r\n\r\n    // address[] public candidateAddress;\r\n\r\n    // mapping(address => Candidate) public candidates;\r\n\r\n    // /////////////END\r\n    // ////////////VOTERS////////////////////////\r\n\r\n    // address[] public votedVoters;\r\n\r\n    // address[] public votersAddress;\r\n    // mapping(address => Voter) public voters;\r\n\r\n    // struct Voter {\r\n    //     uint256 voter_voterId;\r\n    //     string voter_name;\r\n    //     string voter_image;\r\n    //     address voter_address;\r\n    //     uint256 voter_allowed;\r\n    //     bool voter_voted;\r\n    //     uint256 voter_vote;\r\n    //     string voter_ipfs;\r\n    // }\r\n\r\n    // event VoterCreated(\r\n    //     uint256 indexed voter_voterId,\r\n    //     string voter_name,\r\n    //     string voter_image,\r\n    //     address voter_address,\r\n    //     uint256 voter_allowed,\r\n    //     bool voter_voted,\r\n    //     uint256 voter_vote,\r\n    //     string voter_ipfs\r\n    // );\r\n\r\n    ////////////VOTERS////////////////////////\r\n\r\n    constructor() {\r\n        votingOrganizer = msg.sender;\r\n    }\r\n\r\n    //To ng vin cho cuc bu c\r\n    function setVoteDetail(\r\n        address _address,\r\n        uint256 _voteId,\r\n        uint256 _candidateId,\r\n        uint256 _voteQuantity,\r\n        string memory _createdDate\r\n    ) public {\r\n        require(\r\n            votingOrganizer == msg.sender,\r\n            \"You have no azuthorization to set Candidate\"\r\n        );\r\n\r\n        _voterDetailId.increment();\r\n\r\n        uint256 idNumber = _voterDetailId.current();\r\n\r\n        VoteDetail storage voteDetail = voteDetails[_address];\r\n\r\n        voteDetail.voteId = _voteId;\r\n        voteDetail.voteQuantity = _voteQuantity;\r\n        voteDetail.candidateId = _candidateId;\r\n        voteDetail.voterDetailId = idNumber;\r\n        voteDetail.createdDate = _createdDate;\r\n\r\n        voteDetail._address = _address;\r\n\r\n        voteDetailAddress.push(_address);\r\n\r\n        emit CreateVoteDetail(\r\n            voteDetail.voterDetailId,\r\n            _voteId,\r\n            _candidateId,\r\n            _voteQuantity,\r\n            _createdDate,\r\n            voteDetail._address\r\n        );\r\n    }\r\n\r\n    function getVoteDetailAddress() public view returns (address[] memory) {\r\n        return voteDetailAddress;\r\n    }\r\n\r\n    function getVoteDetailData(address _address)\r\n        public\r\n        view\r\n        returns (\r\n            uint256,\r\n            uint256,\r\n            uint256,\r\n            uint256,\r\n            string memory,\r\n            address\r\n        )\r\n    {\r\n        return (\r\n            voteDetails[_address].voterDetailId,\r\n            voteDetails[_address].voteId,\r\n            voteDetails[_address].candidateId,\r\n            voteDetails[_address].voteQuantity,\r\n            voteDetails[_address].createdDate,\r\n            voteDetails[_address]._address\r\n        );\r\n    }\r\n\r\n\r\n\r\n    // function setCandidate(\r\n    //     address _address,\r\n    //     string memory _age,\r\n    //     string memory _name,\r\n    //     string memory _image,\r\n    //     string memory _ipfs\r\n    // ) public {\r\n    //     require(\r\n    //         votingOrganizer == msg.sender,\r\n    //         \"You have no azuthorization to set Candidate\"\r\n    //     );\r\n\r\n    //     _candidateId.increment();\r\n\r\n    //     uint256 idNumber = _candidateId.current();\r\n\r\n    //     Candidate storage candidate = candidates[_address];\r\n\r\n    //     candidate.age = _age;\r\n    //     candidate.name = _name;\r\n    //     candidate.candidateId = idNumber;\r\n    //     candidate.image = _image;\r\n    //     candidate.voteCount = 0;\r\n    //     candidate._address = _address;\r\n    //     candidate.ipfs = _ipfs;\r\n\r\n    //     candidateAddress.push(_address);\r\n\r\n    //     emit CandidateCreate(\r\n    //         candidate.candidateId,\r\n    //         _age,\r\n    //         _name,\r\n    //         _image,\r\n    //         candidate.voteCount,\r\n    //         candidate._address,\r\n    //         candidate.ipfs\r\n    //     );\r\n    // }\r\n\r\n    // function getCandidate() public view returns (address[] memory) {\r\n    //     return candidateAddress;\r\n    // }\r\n\r\n    // function getCandidateLength() public view returns (uint256) {\r\n    //     return candidateAddress.length;\r\n    // }\r\n\r\n    // function getCandidateData(address _address)\r\n    //     public\r\n    //     view\r\n    //     returns (\r\n    //         string memory,\r\n    //         string memory,\r\n    //         uint256,\r\n    //         string memory,\r\n    //         uint256,\r\n    //         string memory,\r\n    //         address\r\n    //     )\r\n    // {\r\n    //     return (\r\n    //         candidates[_address].age,\r\n    //         candidates[_address].name,\r\n    //         candidates[_address].candidateId,\r\n    //         candidates[_address].image,\r\n    //         candidates[_address].voteCount,\r\n    //         candidates[_address].ipfs,\r\n    //         candidates[_address]._address\r\n    //     );\r\n    // }\r\n\r\n    ///////////////////VOTER/////////////////\r\n\r\n    // function voterRight(\r\n    //     address _address,\r\n    //     string memory _name,\r\n    //     string memory _image,\r\n    //     string memory _ipfs\r\n    // ) public {\r\n    //     require(\r\n    //         votingOrganizer == msg.sender,\r\n    //         \"You have no right to provide authorization for vote\"\r\n    //     );\r\n\r\n    //     _voterId.increment();\r\n\r\n    //     uint256 idNumber = _voterId.current();\r\n\r\n    //     Voter storage voter = voters[_address];\r\n\r\n    //     require(voter.voter_allowed == 0);\r\n\r\n    //     voter.voter_allowed = 1;\r\n    //     voter.voter_name = _name;\r\n    //     voter.voter_image = _image;\r\n    //     voter.voter_address = _address;\r\n    //     voter.voter_voterId = idNumber;\r\n    //     voter.voter_vote = 1000;\r\n    //     voter.voter_voted = false;\r\n    //     voter.voter_ipfs = _ipfs;\r\n\r\n    //     votersAddress.push(_address);\r\n\r\n    //     emit VoterCreated(\r\n    //         voter.voter_voterId,\r\n    //         _name,\r\n    //         _image,\r\n    //         _address,\r\n    //         voter.voter_allowed,\r\n    //         voter.voter_voted,\r\n    //         voter.voter_vote,\r\n    //         voter.voter_ipfs\r\n    //     );\r\n    //     // }\r\n    // }\r\n\r\n    // function vote(address _candidateAddress, uint256 _candidateVoteId)\r\n    //     external\r\n    // {\r\n    //     Voter storage voter = voters[msg.sender];\r\n\r\n    //     require(!voter.voter_voted, \"You have already voted\");\r\n    //     require(voter.voter_allowed != 0, \"You have no right to vote\");\r\n\r\n    //     voter.voter_voted = true;\r\n    //     voter.voter_vote = _candidateVoteId;\r\n\r\n    //     votedVoters.push(msg.sender);\r\n\r\n    //     candidates[_candidateAddress].voteCount += voter.voter_allowed;\r\n    // }\r\n\r\n    // function getVoterLength() public view returns (uint256) {\r\n    //     return votersAddress.length;\r\n    // }\r\n\r\n    // function getVoterData(address _address)\r\n    //     public\r\n    //     view\r\n    //     returns (\r\n    //         uint256,\r\n    //         string memory,\r\n    //         string memory,\r\n    //         address,\r\n    //         string memory,\r\n    //         uint256,\r\n    //         bool\r\n    //     )\r\n    // {\r\n    //     return (\r\n    //         voters[_address].voter_voterId,\r\n    //         voters[_address].voter_name,\r\n    //         voters[_address].voter_image,\r\n    //         voters[_address].voter_address,\r\n    //         voters[_address].voter_ipfs,\r\n    //         voters[_address].voter_allowed,\r\n    //         voters[_address].voter_voted\r\n    //     );\r\n    // }\r\n\r\n    // function getVotedVotersList() public view returns (address[] memory) {\r\n    //     return votedVoters;\r\n    // }\r\n\r\n    // function getVoterList() public view returns (address[] memory) {\r\n    //     return votersAddress;\r\n    // }\r\n}\r\n",
  "sourcePath": "C:\\Users\\Admin\\Desktop\\DO AN\\contracts\\contracts\\Voting.sol",
  "compiler": {
    "name": "solc",
    "version": "0.8.13+commit.abaa5c0e.Emscripten.clang"
  },
  "schemaVersion": "3.4.13",
  "updatedAt": "2023-04-25T16:56:10.488Z",
  "networkType": "ethereum",
  "devdoc": {
    "kind": "dev",
    "methods": {},
    "version": 1
  },
  "userdoc": {
    "kind": "user",
    "methods": {
      "constructor": {
        "notice": "CANDIDATE"
      }
    },
    "version": 1
  }
}